:020000040000FA
:04000000FEEFFFF020
:020000040001F9
:10FEDE0012001200120001EE01F10D0EEE6AE8069C
:10FEEE00FDE100019AEFFFF0000EC66E000EBE6E31
:10FEFE00000E0401006F010EC76E010E086FCF9A3F
:10FF0E00CE8E1200000E096E000E0A6E000E0B6EE3
:10FF1E00000E0C6E000E056E000E066E000E076EC5
:10FF2E00000E086E1200048E6FECFFF089ECFFF0ED
:10FF3E007BECFFF071ECFFF0ABECFFF070ECFFF040
:10FF4E00A3EFFFF0FEEFFFF0000E106E000E116E2D
:10FF5E00000E126E000E136E090E0F6E1E0E0E6E3A
:10FF6E00E40EE82EFED70E2EFCD70F2EFAD700D0B9
:10FF7E00CFAAC4EFFFF0C6EFFFF0D5EFFFF01050A1
:10FF8E00800FBE6E150E0F6E4B0E0E6EBE0EE82E51
:10FF9E00FED70E2EFCD70F2EFAD700D0135012100C
:10FFAE00111009E1800E105CD8A0E0EFFFF0E2EF37
:10FFBE00FFF0EAEFFFF0000E106E000E116E000E55
:10FFCE00126E000E136E010E1026000E112212225A
:10FFDE00132213501210111009E1800E105CD8A0DC
:10FFEE00FBEFFFF0FDEFFFF0B3EFFFF0120072EF4B
:02FFFE00FFF012
:020000040020DA
:10000000FF0FFF0FFF0FFF0FFF0FFF0FFF0FFF0F80
:10001000FF0FFF0FFF0FFF0FFF0FFF0FFF0FFF0F70
:020000040030CA
:0A0000008CFEFFFC9FFFFFFFFFFFD7
:00000001FF
