:020000040000FA
:0400000081EF00F09C
:100008003901210121012101400021014000210184
:1000180021012101210121012101210121012101C8
:10002800210140004000400021012101210121015E
:100038002101210121013201D300210121012101E6
:10004800210121012101210140004000210121015C
:10005800210121012101400021012101210121016A
:100068002101210121012101210121012101210178
:10007800210121012101210140002101210121014A
:100088002101210121012101210121012101210158
:1000980021012101210121014000210140004000EE
:1000A8002101210121012101210121012101210138
:1000B8002101210121012101210121012101210128
:1000C8002101210121012101210121012101210118
:1000D8002101210121012101210121012101210108
:1000E8004000210121012101400040004000400062
:1000F8002101210121012101FF0003EF01F080838B
:1001080086898C8F9295989B9EA2A5A7AAADB0B31D
:10011800B6B9BCBEC1C4C6C9CBCED0D3D5D7DADC3C
:10012800DEE0E2E4E6E8EAEBEDEEF0F1F3F4F5F612
:10013800F8F9FAFAFBFCFDFDFEFEFEFFFFFFFFFFEC
:10014800FFFFFEFEFEFDFDFCFBFAFAF9F8F6F5F4FA
:10015800F3F1F0EEEDEBEAE8E6E4E2E0DEDCDAD734
:10016800D5D3D0CECBC9C6C4C1BEBCB9B6B3B0AD69
:10017800AAA7A5A29E9B9895928F8C898683807C3E
:10018800797673706D6A6764615D5A5855524F4C41
:10019800494643413E3B393634312F2C2A28252302
:1001A800211F1D1B1917151412110F0E0C0B0A090C
:1001B8000706050504030202010101000000000012
:1001C80000000101010202030405050607090A0BE4
:1001D8000C0E0F1112141517191B1D1F212325288A
:1001E8002A2C2F313436393B3E414346494C4F5235
:1001F80055585A5D6164676A6D707376797C060E2E
:10020800F66E010EF76E000EF86E01EE00F210EEBB
:1002180000F10900F5C4EEF4E550E150FAE1E250CE
:10022800F8E1BE0EF66E030EF76E000EF86E01EEE4
:1002380060F110EE38F00900F5C4EEF4E550E15035
:10024800FAE1860EF66E030EF76E000EF86E01EEFA
:1002580001F110EE38F00900F5C4EEF4E550E15074
:10026800FAE101EE39F1140EEE6AE806FDE1040147
:10027800080E5D6F000E5E6F000E5F6F000115EFD8
:1002880002F04850020D600EF324D96E050EF420DA
:10029800DA6EDE50455CDE504658D8A056EF01F0C5
:1002A80058EF01F067EF01F0000E466E000E456E44
:1002B800482A1F0E486463EF01F065EF01F067EF0D
:1002C80001F0000E486E454A462A4850020D010EBC
:1002D800F324D96E050EF420DA6E610078F34EF53A
:1002E800610074F34FF5010E506E7CEC01F01200C2
:1002F80003011E91800E4F5CD8A085EF01F087EFB7
:1003080001F08AEF01F07F0E4F6E4E684E1C516E61
:100318004F1C526E52504A6E51C549F5610028F57E
:100328001DF3610024F51CF34B905050D8B49FEF97
:1003380001F0A1EF01F0A2EF01F04B80B198A18884
:100348001E811200610028F51DF3610024F51CF3DD
:10035800000E4724D96EDA6A060EDA22DF50000151
:100368007D6F040E4726B1984BB0BDEF01F0BFEF8B
:1003780001F0C2EF01F0A19803011E9111003C00A9
:1003880000003C00000028000000280000002400B5
:10039800000024000000280000002D0000002D00AF
:1003A80000002F0000002F0000003500000035007D
:1003B80000003C000000000232000002320000028F
:1003C8003200000232000002320000023200000453
:1003D8003200000232000002320000023200000245
:1003E8003200000232000002320000023200000E29
:1003F800416E000E426E000E436E000E446E000EFB
:100408003D6E000E3E6E000E3F6E000E406E7D0E7D
:100418000301236F010E266FB196F00E246FA1869B
:1004280012004C8E74EC02F04FEC02F06DEC02F00E
:10043800FBEC01F02BEC02F04C9E45EC01F0BE9E6B
:100448005AEC02F0BE8E21EF02F081EF00F0C00EF0
:10045800BE16900E03011A6F540E1B6F000E1F6F0D
:10046800010E216F310E1E6F000E4F6E100E4E6E74
:0A047800010E506E7CEC01F0120042
:10048400610060F34DF5010E3926000E3A223B223D
:100494003C22610034F5D8F41100000E0401006F11
:1004A400000EC66EA00E00017F6F000E7D6F12005D
:1004B4004C8C4CBC60EF02F062EF02F05BEF02F098
:0204C400120024
:1004C800B1964C9C010E4126000E42224322442242
:0A04D8001100D68AD68ED68C1200D1
:0604E400AE9011001200B1
:020000040020DA
:10000000FF0FFF0FFF0FFF0FFF0FFF0FFF0FFF0F80
:10001000FF0FFF0FFF0FFF0FFF0FFF0FFF0FFF0F70
:020000040030CA
:0A0000008CFEFFFC9FFFFFFFFFFFD7
:00000001FF
