:020000040000FA
:04000000FEEFFFF020
:020000040001F9
:10FE880012001200120001EE01F10D0EEE6AE806F2
:10FE9800FDE100016FEFFFF0000EC66E000EBE6EB2
:10FEA800000E0401006F010EC76E010E086FCF9A95
:10FEB800CE8E1200000E096E000E0A6E000E0B6E3A
:10FEC800000E0C6E000E056E000E066E000E076E1C
:10FED800000E086E1200048E44ECFFF05EECFFF09A
:10FEE80050ECFFF046ECFFF080ECFFF045ECFFF043
:10FEF80078EFFFF0FEEFFFF0000ECFBA010E106EA4
:10FF0800000E126E000E136E000E146E000E156EAB
:10FF1800000ECFBA010E116E1150D8A496EFFFF063
:10FF280098EFFFF0EEEFFFF01004D8A49EEFFFF07B
:10FF3800A0EFFFF0EEEFFFF012A0A5EFFFF0A7EFA4
:10FF4800FFF0AAEFFFF0CE80ABEFFFF0CE9012A249
:10FF5800B0EFFFF0B2EFFFF0B5EFFFF0CE82B6EFF3
:10FF6800FFF0CE9212A4BBEFFFF0BDEFFFF0C0EFA1
:10FF7800FFF0CE84C1EFFFF0CE9412A6C6EFFFF0DB
:10FF8800C8EFFFF0CBEFFFF0CE86CCEFFFF0CE96B8
:10FF980012A8D1EFFFF0D3EFFFF0D6EFFFF0CE8835
:10FFA800D7EFFFF0CE9812AADCEFFFF0DEEFFFF0FC
:10FFB800E1EFFFF0CE8AE2EFFFF0CE9A150E0F6E5A
:10FFC8004B0E0E6EBE0EE82EFED70E2EFCD70F2E51
:10FFD800FAD700D011C510F515501410131009E107
:10FFE800410E125CD8A0FBEFFFF0FDEFFFF08CEFA5
:08FFF800FFF0120047EFFFF0DB
:020000040020DA
:10000000FF0FFF0FFF0FFF0FFF0FFF0FFF0FFF0F80
:10001000FF0FFF0FFF0FFF0FFF0FFF0FFF0FFF0F70
:020000040030CA
:0A0000008CFEFFFC9FFFFFFFFFFFD7
:00000001FF
