:020000040000FA
:04000000FEEFFFF020
:020000040001F9
:10FF4400120012001200000EC66E000EBE6E000EED
:10FF54000401006FCE8E120001EE01F10D0EEE6A67
:10FF6400E806FDE10001C8EFFFF0000E096E000E87
:10FF74000A6E000E0B6E000E0C6E000E056E000E67
:10FF8400066E000E076E000E086E1200048EA2ECC0
:10FF9400FFF0B7ECFFF0A5ECFFF0A4ECFFF0D9EC18
:10FFA400FFF0A3ECFFF0D1EFFFF0FEEFFFF0000E47
:10FFB400106E1050800FBE6E150E0F6E4B0E0E6E2F
:10FFC400BE0EE82EFED70E2EFCD70F2EFAD700D089
:10FFD4007F0E1064F0EFFFF0F2EFFFF0F4EFFFF0AC
:10FFE400000E106E102A7F0E1064FBEFFFF0FDEF81
:0CFFF400FFF0DBEFFFF01200AEEFFFF0BB
:020000040020DA
:10000000FF0FFF0FFF0FFF0FFF0FFF0FFF0FFF0F80
:10001000FF0FFF0FFF0FFF0FFF0FFF0FFF0FFF0F70
:020000040030CA
:0A0000008CFEFFFC9FFFFFFFFFFFD7
:00000001FF
