:020000040000FA
:04000000FEEFFFF020
:020000040001F9
:10FEED000112001200900E03011A6F540E1B6F8049
:10FEFD000EBE6E1200000EC66E000E0401006FA045
:10FF0D000E00017F6F000E7D6F120003011A9F0E10
:10FF1D001C106E0F1C116E610040F418F311501976
:10FF2D006FB19E1A8F1200000E096E000E0A6E0040
:10FF3D000E0B6E000E0C6E000E056E000E066E00A2
:10FF4D000E076E000E086E1200ED0EF66EFE0EF729
:10FF5D006E010EF86E09006100D4F312F501EE0189
:10FF6D00F10D0EEE6AE806FDE10001BEEFFFF004B3
:10FF7D008E77ECFFF09AECFFF081ECFFF079ECFF5F
:10FF8D00F0DCECFFF078ECFFF0030E0F6EE80E0ED8
:10FF9D006E8CECFFF0B1AED6EFFFF0D8EFFFF0D1E5
:10FFAD00EFFFF0C7EFFFF0FEEFFFF000017D29D866
:10FFBD00A4E3EFFFF0E5EFFFF0E7EFFFF0000E1227
:10FFCD006E7D51D8A4EDEFFFF0EFEFFFF0F1EFFFF5
:10FFDD00F0010E126E1250D8B4F7EFFFF0F9EFFFEB
:10FFED00F0FCEFFFF07D2BFDEFFFF07D071200AB76
:03FFFD00EFFFF023
:020000040020DA
:10000000FF0FFF0FFF0FFF0FFF0FFF0FFF0FFF0F80
:10001000FF0FFF0FFF0FFF0FFF0FFF0FFF0FFF0F70
:020000040030CA
:0A0000008CFEFFFC9FFFFFFFFFFFD7
:00000001FF
